{
  "_format": "hh-sol-artifact-1",
  "contractName": "StudentDatabase",
  "sourceName": "contracts/new.sol",
  "abi": [
    {
      "inputs": [
        {
          "internalType": "uint256",
          "name": "_id",
          "type": "uint256"
        },
        {
          "internalType": "string",
          "name": "_name",
          "type": "string"
        }
      ],
      "name": "addStudent",
      "outputs": [],
      "stateMutability": "nonpayable",
      "type": "function"
    },
    {
      "inputs": [
        {
          "internalType": "uint256",
          "name": "_id",
          "type": "uint256"
        }
      ],
      "name": "deleteStudent",
      "outputs": [],
      "stateMutability": "nonpayable",
      "type": "function"
    },
    {
      "inputs": [
        {
          "internalType": "uint256",
          "name": "_id",
          "type": "uint256"
        }
      ],
      "name": "getStudent",
      "outputs": [
        {
          "internalType": "uint256",
          "name": "",
          "type": "uint256"
        },
        {
          "internalType": "string",
          "name": "",
          "type": "string"
        }
      ],
      "stateMutability": "view",
      "type": "function"
    },
    {
      "inputs": [
        {
          "internalType": "uint256",
          "name": "",
          "type": "uint256"
        }
      ],
      "name": "students",
      "outputs": [
        {
          "internalType": "uint256",
          "name": "id",
          "type": "uint256"
        },
        {
          "internalType": "string",
          "name": "name",
          "type": "string"
        }
      ],
      "stateMutability": "view",
      "type": "function"
    },
    {
      "inputs": [
        {
          "internalType": "uint256",
          "name": "_id",
          "type": "uint256"
        },
        {
          "internalType": "string",
          "name": "_name",
          "type": "string"
        }
      ],
      "name": "updateStudent",
      "outputs": [],
      "stateMutability": "nonpayable",
      "type": "function"
    }
  ],
  "bytecode": "0x608060405234801561001057600080fd5b50610a9c806100206000396000f3fe608060405234801561001057600080fd5b50600436106100575760003560e01c806306ead22e1461005c57806342ecc52a1461008d578063642f9163146100a9578063b645307d146100da578063b9f02055146100f6575b600080fd5b6100766004803603810190610071919061048f565b610112565b60405161008492919061055b565b60405180910390f35b6100a760048036038101906100a291906106c0565b6101be565b005b6100c360048036038101906100be919061048f565b61020c565b6040516100d192919061055b565b60405180910390f35b6100f460048036038101906100ef919061048f565b6102e1565b005b610110600480360381019061010b91906106c0565b610369565b005b600060205280600052604060002060009150905080600001549080600101805461013b9061074b565b80601f01602080910402602001604051908101604052809291908181526020018280546101679061074b565b80156101b45780601f10610189576101008083540402835291602001916101b4565b820191906000526020600020905b81548152906001019060200180831161019757829003601f168201915b5050505050905082565b6040518060400160405280838152602001828152506000808481526020019081526020016000206000820151816000015560208201518160010190816102049190610928565b509050505050565b600060606000806000858152602001908152602001600020604051806040016040529081600082015481526020016001820180546102499061074b565b80601f01602080910402602001604051908101604052809291908181526020018280546102759061074b565b80156102c25780601f10610297576101008083540402835291602001916102c2565b820191906000526020600020905b8154815290600101906020018083116102a557829003601f168201915b5050505050815250509050806000015181602001519250925050915091565b60008060008381526020019081526020016000206000015403610339576040517f08c379a000000000000000000000000000000000000000000000000000000000815260040161033090610a46565b60405180910390fd5b60008082815260200190815260200160002060008082016000905560018201600061036491906103e8565b505050565b600080600084815260200190815260200160002060000154036103c1576040517f08c379a00000000000000000000000000000000000000000000000000000000081526004016103b890610a46565b60405180910390fd5b8060008084815260200190815260200160002060010190816103e39190610928565b505050565b5080546103f49061074b565b6000825580601f106104065750610425565b601f0160209004906000526020600020908101906104249190610428565b5b50565b5b80821115610441576000816000905550600101610429565b5090565b6000604051905090565b600080fd5b600080fd5b6000819050919050565b61046c81610459565b811461047757600080fd5b50565b60008135905061048981610463565b92915050565b6000602082840312156104a5576104a461044f565b5b60006104b38482850161047a565b91505092915050565b6104c581610459565b82525050565b600081519050919050565b600082825260208201905092915050565b60005b838110156105055780820151818401526020810190506104ea565b60008484015250505050565b6000601f19601f8301169050919050565b600061052d826104cb565b61053781856104d6565b93506105478185602086016104e7565b61055081610511565b840191505092915050565b600060408201905061057060008301856104bc565b81810360208301526105828184610522565b90509392505050565b600080fd5b600080fd5b7f4e487b7100000000000000000000000000000000000000000000000000000000600052604160045260246000fd5b6105cd82610511565b810181811067ffffffffffffffff821117156105ec576105eb610595565b5b80604052505050565b60006105ff610445565b905061060b82826105c4565b919050565b600067ffffffffffffffff82111561062b5761062a610595565b5b61063482610511565b9050602081019050919050565b82818337600083830152505050565b600061066361065e84610610565b6105f5565b90508281526020810184848401111561067f5761067e610590565b5b61068a848285610641565b509392505050565b600082601f8301126106a7576106a661058b565b5b81356106b7848260208601610650565b91505092915050565b600080604083850312156106d7576106d661044f565b5b60006106e58582860161047a565b925050602083013567ffffffffffffffff81111561070657610705610454565b5b61071285828601610692565b9150509250929050565b7f4e487b7100000000000000000000000000000000000000000000000000000000600052602260045260246000fd5b6000600282049050600182168061076357607f821691505b6020821081036107765761077561071c565b5b50919050565b60008190508160005260206000209050919050565b60006020601f8301049050919050565b600082821b905092915050565b6000600883026107de7fffffffffffffffffffffffffffffffffffffffffffffffffffffffffffffffff826107a1565b6107e886836107a1565b95508019841693508086168417925050509392505050565b6000819050919050565b600061082561082061081b84610459565b610800565b610459565b9050919050565b6000819050919050565b61083f8361080a565b61085361084b8261082c565b8484546107ae565b825550505050565b600090565b61086861085b565b610873818484610836565b505050565b5b818110156108975761088c600082610860565b600181019050610879565b5050565b601f8211156108dc576108ad8161077c565b6108b684610791565b810160208510156108c5578190505b6108d96108d185610791565b830182610878565b50505b505050565b600082821c905092915050565b60006108ff600019846008026108e1565b1980831691505092915050565b600061091883836108ee565b9150826002028217905092915050565b610931826104cb565b67ffffffffffffffff81111561094a57610949610595565b5b610954825461074b565b61095f82828561089b565b600060209050601f8311600181146109925760008415610980578287015190505b61098a858261090c565b8655506109f2565b601f1984166109a08661077c565b60005b828110156109c8578489015182556001820191506020850194506020810190506109a3565b868310156109e557848901516109e1601f8916826108ee565b8355505b6001600288020188555050505b505050505050565b7f53747564656e74206e6f7420666f756e64000000000000000000000000000000600082015250565b6000610a306011836104d6565b9150610a3b826109fa565b602082019050919050565b60006020820190508181036000830152610a5f81610a23565b905091905056fea2646970667358221220748aac263f0fa96334e3ca5a6e4d9e76758e328d5674eaee8cc741dfc53e4ce564736f6c63430008180033",
  "linkReferences": {},
  "deployedLinkReferences": {}
}